{
  "address": "0x8a8E9F746c5DEe73a857744c7d8C4e72453db082",
  "abi": [
    {
      "anonymous": false,
      "inputs": [
        {
          "indexed": true,
          "internalType": "address",
          "name": "owner",
          "type": "address"
        },
        {
          "indexed": true,
          "internalType": "address",
          "name": "approved",
          "type": "address"
        },
        {
          "indexed": true,
          "internalType": "uint256",
          "name": "tokenId",
          "type": "uint256"
        }
      ],
      "name": "Approval",
      "type": "event"
    },
    {
      "anonymous": false,
      "inputs": [
        {
          "indexed": true,
          "internalType": "address",
          "name": "owner",
          "type": "address"
        },
        {
          "indexed": true,
          "internalType": "address",
          "name": "operator",
          "type": "address"
        },
        {
          "indexed": false,
          "internalType": "bool",
          "name": "approved",
          "type": "bool"
        }
      ],
      "name": "ApprovalForAll",
      "type": "event"
    },
    {
      "anonymous": false,
      "inputs": [
        {
          "indexed": true,
          "internalType": "address",
          "name": "previousOwner",
          "type": "address"
        },
        {
          "indexed": true,
          "internalType": "address",
          "name": "newOwner",
          "type": "address"
        }
      ],
      "name": "OwnershipTransferred",
      "type": "event"
    },
    {
      "anonymous": false,
      "inputs": [
        {
          "indexed": true,
          "internalType": "address",
          "name": "from",
          "type": "address"
        },
        {
          "indexed": true,
          "internalType": "address",
          "name": "to",
          "type": "address"
        },
        {
          "indexed": true,
          "internalType": "uint256",
          "name": "tokenId",
          "type": "uint256"
        }
      ],
      "name": "Transfer",
      "type": "event"
    },
    {
      "inputs": [],
      "name": "acceptApprovalAddress",
      "outputs": [
        {
          "internalType": "address",
          "name": "",
          "type": "address"
        }
      ],
      "stateMutability": "view",
      "type": "function"
    },
    {
      "inputs": [
        {
          "internalType": "address",
          "name": "to",
          "type": "address"
        },
        {
          "internalType": "uint256",
          "name": "tokenId",
          "type": "uint256"
        }
      ],
      "name": "approve",
      "outputs": [],
      "stateMutability": "nonpayable",
      "type": "function"
    },
    {
      "inputs": [
        {
          "internalType": "address",
          "name": "owner",
          "type": "address"
        }
      ],
      "name": "balanceOf",
      "outputs": [
        {
          "internalType": "uint256",
          "name": "",
          "type": "uint256"
        }
      ],
      "stateMutability": "view",
      "type": "function"
    },
    {
      "inputs": [],
      "name": "baseURI",
      "outputs": [
        {
          "internalType": "string",
          "name": "",
          "type": "string"
        }
      ],
      "stateMutability": "view",
      "type": "function"
    },
    {
      "inputs": [
        {
          "internalType": "uint256",
          "name": "tokenId",
          "type": "uint256"
        }
      ],
      "name": "burn",
      "outputs": [],
      "stateMutability": "nonpayable",
      "type": "function"
    },
    {
      "inputs": [
        {
          "internalType": "uint256",
          "name": "tokenId",
          "type": "uint256"
        }
      ],
      "name": "getApproved",
      "outputs": [
        {
          "internalType": "address",
          "name": "",
          "type": "address"
        }
      ],
      "stateMutability": "view",
      "type": "function"
    },
    {
      "inputs": [
        {
          "internalType": "address",
          "name": "_owner",
          "type": "address"
        }
      ],
      "name": "initialize",
      "outputs": [],
      "stateMutability": "nonpayable",
      "type": "function"
    },
    {
      "inputs": [
        {
          "internalType": "address",
          "name": "owner",
          "type": "address"
        },
        {
          "internalType": "address",
          "name": "operator",
          "type": "address"
        }
      ],
      "name": "isApprovedForAll",
      "outputs": [
        {
          "internalType": "bool",
          "name": "",
          "type": "bool"
        }
      ],
      "stateMutability": "view",
      "type": "function"
    },
    {
      "inputs": [
        {
          "internalType": "uint256",
          "name": "tokenId",
          "type": "uint256"
        }
      ],
      "name": "mint",
      "outputs": [],
      "stateMutability": "nonpayable",
      "type": "function"
    },
    {
      "inputs": [],
      "name": "name",
      "outputs": [
        {
          "internalType": "string",
          "name": "",
          "type": "string"
        }
      ],
      "stateMutability": "view",
      "type": "function"
    },
    {
      "inputs": [],
      "name": "owner",
      "outputs": [
        {
          "internalType": "address",
          "name": "",
          "type": "address"
        }
      ],
      "stateMutability": "view",
      "type": "function"
    },
    {
      "inputs": [
        {
          "internalType": "uint256",
          "name": "tokenId",
          "type": "uint256"
        }
      ],
      "name": "ownerOf",
      "outputs": [
        {
          "internalType": "address",
          "name": "",
          "type": "address"
        }
      ],
      "stateMutability": "view",
      "type": "function"
    },
    {
      "inputs": [],
      "name": "renounceOwnership",
      "outputs": [],
      "stateMutability": "nonpayable",
      "type": "function"
    },
    {
      "inputs": [
        {
          "internalType": "address",
          "name": "from",
          "type": "address"
        },
        {
          "internalType": "address",
          "name": "to",
          "type": "address"
        },
        {
          "internalType": "uint256",
          "name": "tokenId",
          "type": "uint256"
        }
      ],
      "name": "safeTransferFrom",
      "outputs": [],
      "stateMutability": "nonpayable",
      "type": "function"
    },
    {
      "inputs": [
        {
          "internalType": "address",
          "name": "from",
          "type": "address"
        },
        {
          "internalType": "address",
          "name": "to",
          "type": "address"
        },
        {
          "internalType": "uint256",
          "name": "tokenId",
          "type": "uint256"
        },
        {
          "internalType": "bytes",
          "name": "_data",
          "type": "bytes"
        }
      ],
      "name": "safeTransferFrom",
      "outputs": [],
      "stateMutability": "nonpayable",
      "type": "function"
    },
    {
      "inputs": [
        {
          "internalType": "address",
          "name": "_acceptApprovalAddress",
          "type": "address"
        }
      ],
      "name": "setAcceptApprovalAddress",
      "outputs": [],
      "stateMutability": "nonpayable",
      "type": "function"
    },
    {
      "inputs": [
        {
          "internalType": "address",
          "name": "operator",
          "type": "address"
        },
        {
          "internalType": "bool",
          "name": "approved",
          "type": "bool"
        }
      ],
      "name": "setApprovalForAll",
      "outputs": [],
      "stateMutability": "nonpayable",
      "type": "function"
    },
    {
      "inputs": [
        {
          "internalType": "string",
          "name": "baseURI",
          "type": "string"
        }
      ],
      "name": "setBaseURI",
      "outputs": [],
      "stateMutability": "nonpayable",
      "type": "function"
    },
    {
      "inputs": [
        {
          "internalType": "bytes4",
          "name": "interfaceId",
          "type": "bytes4"
        }
      ],
      "name": "supportsInterface",
      "outputs": [
        {
          "internalType": "bool",
          "name": "",
          "type": "bool"
        }
      ],
      "stateMutability": "view",
      "type": "function"
    },
    {
      "inputs": [],
      "name": "symbol",
      "outputs": [
        {
          "internalType": "string",
          "name": "",
          "type": "string"
        }
      ],
      "stateMutability": "view",
      "type": "function"
    },
    {
      "inputs": [
        {
          "internalType": "uint256",
          "name": "tokenId",
          "type": "uint256"
        }
      ],
      "name": "tokenURI",
      "outputs": [
        {
          "internalType": "string",
          "name": "",
          "type": "string"
        }
      ],
      "stateMutability": "view",
      "type": "function"
    },
    {
      "inputs": [
        {
          "internalType": "address",
          "name": "from",
          "type": "address"
        },
        {
          "internalType": "address",
          "name": "to",
          "type": "address"
        },
        {
          "internalType": "uint256",
          "name": "tokenId",
          "type": "uint256"
        }
      ],
      "name": "transferFrom",
      "outputs": [],
      "stateMutability": "nonpayable",
      "type": "function"
    },
    {
      "inputs": [
        {
          "internalType": "address",
          "name": "newOwner",
          "type": "address"
        }
      ],
      "name": "transferOwnership",
      "outputs": [],
      "stateMutability": "nonpayable",
      "type": "function"
    }
  ],
  "transactionHash": "0xa3089536a43bb009acd8fdd5e9911a6f18ba87005ddb7af7b13a8d4d36376b84",
  "args": [],
  "numDeployments": 2,
  "solcInputHash": "aa6b30418ba1f135cc3c91221b73a934",
  "bytecode": "0x608060405234801561001057600080fd5b5061383b806100206000396000f3fe608060405234801561001057600080fd5b506004361061014d5760003560e01c806370a08231116100c3578063a22cb4651161007c578063a22cb46514610376578063b88d4fde14610392578063c4d66de8146103ae578063c87b56dd146103ca578063e985e9c5146103fa578063f2fde38b1461042a5761014d565b806370a08231146102c8578063715018a6146102f85780637fedb620146103025780638da5cb5b1461031e57806395d89b411461033c578063a0712d681461035a5761014d565b806342842e0e1161011557806342842e0e1461020857806342966c68146102245780635237707e1461024057806355f804b31461025e5780636352211e1461027a5780636c0360eb146102aa5761014d565b806301ffc9a71461015257806306fdde0314610182578063081812fc146101a0578063095ea7b3146101d057806323b872dd146101ec575b600080fd5b61016c6004803603810190610167919061262e565b610446565b6040516101799190612b15565b60405180910390f35b61018a610528565b6040516101979190612b30565b60405180910390f35b6101ba60048036038101906101b591906126d1565b6105ba565b6040516101c79190612aae565b60405180910390f35b6101ea60048036038101906101e591906125ee565b61063f565b005b610206600480360381019061020191906124d8565b610765565b005b610222600480360381019061021d91906124d8565b6107c5565b005b61023e600480360381019061023991906126d1565b6107e5565b005b610248610841565b6040516102559190612aae565b60405180910390f35b61027860048036038101906102739190612688565b610867565b005b610294600480360381019061028f91906126d1565b6108ef565b6040516102a19190612aae565b60405180910390f35b6102b26109a1565b6040516102bf9190612b30565b60405180910390f35b6102e260048036038101906102dd919061243e565b610a33565b6040516102ef9190612dd2565b60405180910390f35b610300610aeb565b005b61031c6004803603810190610317919061243e565b610b73565b005b610326610c33565b6040516103339190612aae565b60405180910390f35b610344610c5d565b6040516103519190612b30565b60405180910390f35b610374600480360381019061036f91906126d1565b610cef565b005b610390600480360381019061038b91906125ae565b610cfc565b005b6103ac60048036038101906103a7919061252b565b610e22565b005b6103c860048036038101906103c3919061243e565b610e84565b005b6103e460048036038101906103df91906126d1565b610fee565b6040516103f19190612b30565b60405180910390f35b610414600480360381019061040f9190612498565b611076565b6040516104219190612b15565b60405180910390f35b610444600480360381019061043f919061243e565b61110a565b005b60007f80ac58cd000000000000000000000000000000000000000000000000000000007bffffffffffffffffffffffffffffffffffffffffffffffffffffffff1916827bffffffffffffffffffffffffffffffffffffffffffffffffffffffff1916148061051157507f5b5e139f000000000000000000000000000000000000000000000000000000007bffffffffffffffffffffffffffffffffffffffffffffffffffffffff1916827bffffffffffffffffffffffffffffffffffffffffffffffffffffffff1916145b80610521575061052082611202565b5b9050919050565b60606065805461053790613028565b80601f016020809104026020016040519081016040528092919081815260200182805461056390613028565b80156105b05780601f10610585576101008083540402835291602001916105b0565b820191906000526020600020905b81548152906001019060200180831161059357829003601f168201915b5050505050905090565b60006105c58261126c565b610604576040517f08c379a00000000000000000000000000000000000000000000000000000000081526004016105fb90612cd2565b60405180910390fd5b6069600083815260200190815260200160002060009054906101000a900473ffffffffffffffffffffffffffffffffffffffff169050919050565b60ca60009054906101000a900473ffffffffffffffffffffffffffffffffffffffff1673ffffffffffffffffffffffffffffffffffffffff1663c4552791336040518263ffffffff1660e01b815260040161069a9190612aae565b60206040518083038186803b1580156106b257600080fd5b505afa1580156106c6573d6000803e3d6000fd5b505050506040513d601f19601f820116820180604052508101906106ea919061246b565b73ffffffffffffffffffffffffffffffffffffffff168273ffffffffffffffffffffffffffffffffffffffff1614610757576040517f08c379a000000000000000000000000000000000000000000000000000000000815260040161074e90612d32565b60405180910390fd5b61076182826112d8565b5050565b6107766107706113f0565b826113f8565b6107b5576040517f08c379a00000000000000000000000000000000000000000000000000000000081526004016107ac90612d72565b60405180910390fd5b6107c08383836114d6565b505050565b6107e083838360405180602001604052806000815250610e22565b505050565b6107f66107f06113f0565b826113f8565b610835576040517f08c379a000000000000000000000000000000000000000000000000000000000815260040161082c90612db2565b60405180910390fd5b61083e8161173d565b50565b60ca60009054906101000a900473ffffffffffffffffffffffffffffffffffffffff1681565b61086f6113f0565b73ffffffffffffffffffffffffffffffffffffffff1661088d610c33565b73ffffffffffffffffffffffffffffffffffffffff16146108e3576040517f08c379a00000000000000000000000000000000000000000000000000000000081526004016108da90612cf2565b60405180910390fd5b6108ec8161185a565b50565b6000806067600084815260200190815260200160002060009054906101000a900473ffffffffffffffffffffffffffffffffffffffff169050600073ffffffffffffffffffffffffffffffffffffffff168173ffffffffffffffffffffffffffffffffffffffff161415610998576040517f08c379a000000000000000000000000000000000000000000000000000000000815260040161098f90612c72565b60405180910390fd5b80915050919050565b606060c980546109b090613028565b80601f01602080910402602001604051908101604052809291908181526020018280546109dc90613028565b8015610a295780601f106109fe57610100808354040283529160200191610a29565b820191906000526020600020905b815481529060010190602001808311610a0c57829003601f168201915b5050505050905090565b60008073ffffffffffffffffffffffffffffffffffffffff168273ffffffffffffffffffffffffffffffffffffffff161415610aa4576040517f08c379a0000000000000000000000000000000000000000000000000000000008152600401610a9b90612c52565b60405180910390fd5b606860008373ffffffffffffffffffffffffffffffffffffffff1673ffffffffffffffffffffffffffffffffffffffff168152602001908152602001600020549050919050565b610af36113f0565b73ffffffffffffffffffffffffffffffffffffffff16610b11610c33565b73ffffffffffffffffffffffffffffffffffffffff1614610b67576040517f08c379a0000000000000000000000000000000000000000000000000000000008152600401610b5e90612cf2565b60405180910390fd5b610b716000611874565b565b610b7b6113f0565b73ffffffffffffffffffffffffffffffffffffffff16610b99610c33565b73ffffffffffffffffffffffffffffffffffffffff1614610bef576040517f08c379a0000000000000000000000000000000000000000000000000000000008152600401610be690612cf2565b60405180910390fd5b8060ca60006101000a81548173ffffffffffffffffffffffffffffffffffffffff021916908373ffffffffffffffffffffffffffffffffffffffff16021790555050565b6000609760009054906101000a900473ffffffffffffffffffffffffffffffffffffffff16905090565b606060668054610c6c90613028565b80601f0160208091040260200160405190810160405280929190818152602001828054610c9890613028565b8015610ce55780601f10610cba57610100808354040283529160200191610ce5565b820191906000526020600020905b815481529060010190602001808311610cc857829003601f168201915b5050505050905090565b610cf9338261193a565b50565b60ca60009054906101000a900473ffffffffffffffffffffffffffffffffffffffff1673ffffffffffffffffffffffffffffffffffffffff1663c4552791336040518263ffffffff1660e01b8152600401610d579190612aae565b60206040518083038186803b158015610d6f57600080fd5b505afa158015610d83573d6000803e3d6000fd5b505050506040513d601f19601f82011682018060405250810190610da7919061246b565b73ffffffffffffffffffffffffffffffffffffffff168273ffffffffffffffffffffffffffffffffffffffff1614610e14576040517f08c379a0000000000000000000000000000000000000000000000000000000008152600401610e0b90612d32565b60405180910390fd5b610e1e8282611958565b5050565b610e33610e2d6113f0565b836113f8565b610e72576040517f08c379a0000000000000000000000000000000000000000000000000000000008152600401610e6990612d72565b60405180910390fd5b610e7e8484848461196e565b50505050565b600060019054906101000a900460ff16610eac5760008054906101000a900460ff1615610eb5565b610eb46119ca565b5b610ef4576040517f08c379a0000000000000000000000000000000000000000000000000000000008152600401610eeb90612c92565b60405180910390fd5b60008060019054906101000a900460ff161590508015610f44576001600060016101000a81548160ff02191690831515021790555060016000806101000a81548160ff0219169083151502179055505b610f4c6119db565b610f558261110a565b610fc96040518060400160405280600981526020017f52756774656e4e465400000000000000000000000000000000000000000000008152506040518060400160405280600381526020017f52544e0000000000000000000000000000000000000000000000000000000000815250611a3c565b8015610fea5760008060016101000a81548160ff0219169083151502179055505b5050565b6060610ff98261126c565b611038576040517f08c379a000000000000000000000000000000000000000000000000000000000815260040161102f90612d12565b60405180910390fd5b60006110426109a1565b90508061104e84611abd565b60405160200161105f929190612a8a565b604051602081830303815290604052915050919050565b6000606a60008473ffffffffffffffffffffffffffffffffffffffff1673ffffffffffffffffffffffffffffffffffffffff16815260200190815260200160002060008373ffffffffffffffffffffffffffffffffffffffff1673ffffffffffffffffffffffffffffffffffffffff16815260200190815260200160002060009054906101000a900460ff16905092915050565b6111126113f0565b73ffffffffffffffffffffffffffffffffffffffff16611130610c33565b73ffffffffffffffffffffffffffffffffffffffff1614611186576040517f08c379a000000000000000000000000000000000000000000000000000000000815260040161117d90612cf2565b60405180910390fd5b600073ffffffffffffffffffffffffffffffffffffffff168173ffffffffffffffffffffffffffffffffffffffff1614156111f6576040517f08c379a00000000000000000000000000000000000000000000000000000000081526004016111ed90612b72565b60405180910390fd5b6111ff81611874565b50565b60007f01ffc9a7000000000000000000000000000000000000000000000000000000007bffffffffffffffffffffffffffffffffffffffffffffffffffffffff1916827bffffffffffffffffffffffffffffffffffffffffffffffffffffffff1916149050919050565b60008073ffffffffffffffffffffffffffffffffffffffff166067600084815260200190815260200160002060009054906101000a900473ffffffffffffffffffffffffffffffffffffffff1673ffffffffffffffffffffffffffffffffffffffff1614159050919050565b60006112e3826108ef565b90508073ffffffffffffffffffffffffffffffffffffffff168373ffffffffffffffffffffffffffffffffffffffff161415611354576040517f08c379a000000000000000000000000000000000000000000000000000000000815260040161134b90612d52565b60405180910390fd5b8073ffffffffffffffffffffffffffffffffffffffff166113736113f0565b73ffffffffffffffffffffffffffffffffffffffff1614806113a257506113a18161139c6113f0565b611076565b5b6113e1576040517f08c379a00000000000000000000000000000000000000000000000000000000081526004016113d890612c32565b60405180910390fd5b6113eb8383611c1e565b505050565b600033905090565b60006114038261126c565b611442576040517f08c379a000000000000000000000000000000000000000000000000000000000815260040161143990612c12565b60405180910390fd5b600061144d836108ef565b90508073ffffffffffffffffffffffffffffffffffffffff168473ffffffffffffffffffffffffffffffffffffffff1614806114bc57508373ffffffffffffffffffffffffffffffffffffffff166114a4846105ba565b73ffffffffffffffffffffffffffffffffffffffff16145b806114cd57506114cc8185611076565b5b91505092915050565b8273ffffffffffffffffffffffffffffffffffffffff166114f6826108ef565b73ffffffffffffffffffffffffffffffffffffffff161461154c576040517f08c379a000000000000000000000000000000000000000000000000000000000815260040161154390612b92565b60405180910390fd5b600073ffffffffffffffffffffffffffffffffffffffff168273ffffffffffffffffffffffffffffffffffffffff1614156115bc576040517f08c379a00000000000000000000000000000000000000000000000000000000081526004016115b390612bd2565b60405180910390fd5b6115c7838383611cd7565b6115d2600082611c1e565b6001606860008573ffffffffffffffffffffffffffffffffffffffff1673ffffffffffffffffffffffffffffffffffffffff16815260200190815260200160002060008282546116229190612f3e565b925050819055506001606860008473ffffffffffffffffffffffffffffffffffffffff1673ffffffffffffffffffffffffffffffffffffffff16815260200190815260200160002060008282546116799190612eb7565b92505081905550816067600083815260200190815260200160002060006101000a81548173ffffffffffffffffffffffffffffffffffffffff021916908373ffffffffffffffffffffffffffffffffffffffff160217905550808273ffffffffffffffffffffffffffffffffffffffff168473ffffffffffffffffffffffffffffffffffffffff167fddf252ad1be2c89b69c2b068fc378daa952ba7f163c4a11628f55a4df523b3ef60405160405180910390a4611738838383611cdc565b505050565b6000611748826108ef565b905061175681600084611cd7565b611761600083611c1e565b6001606860008373ffffffffffffffffffffffffffffffffffffffff1673ffffffffffffffffffffffffffffffffffffffff16815260200190815260200160002060008282546117b19190612f3e565b925050819055506067600083815260200190815260200160002060006101000a81549073ffffffffffffffffffffffffffffffffffffffff021916905581600073ffffffffffffffffffffffffffffffffffffffff168273ffffffffffffffffffffffffffffffffffffffff167fddf252ad1be2c89b69c2b068fc378daa952ba7f163c4a11628f55a4df523b3ef60405160405180910390a461185681600084611cdc565b5050565b8060c9908051906020019061187092919061223d565b5050565b6000609760009054906101000a900473ffffffffffffffffffffffffffffffffffffffff16905081609760006101000a81548173ffffffffffffffffffffffffffffffffffffffff021916908373ffffffffffffffffffffffffffffffffffffffff1602179055508173ffffffffffffffffffffffffffffffffffffffff168173ffffffffffffffffffffffffffffffffffffffff167f8be0079c531659141344cd1fd0a4f28419497f9722a3daafe3b4186f6b6457e060405160405180910390a35050565b611954828260405180602001604052806000815250611ce1565b5050565b61196a6119636113f0565b8383611d3c565b5050565b6119798484846114d6565b61198584848484611ea9565b6119c4576040517f08c379a00000000000000000000000000000000000000000000000000000000081526004016119bb90612b52565b60405180910390fd5b50505050565b60006119d530612040565b15905090565b600060019054906101000a900460ff16611a2a576040517f08c379a0000000000000000000000000000000000000000000000000000000008152600401611a2190612d92565b60405180910390fd5b611a3a611a356113f0565b611874565b565b600060019054906101000a900460ff16611a8b576040517f08c379a0000000000000000000000000000000000000000000000000000000008152600401611a8290612d92565b60405180910390fd5b8160659080519060200190611aa192919061223d565b508060669080519060200190611ab892919061223d565b505050565b60606000821415611b05576040518060400160405280600181526020017f30000000000000000000000000000000000000000000000000000000000000008152509050611c19565b600082905060005b60008214611b37578080611b209061308b565b915050600a82611b309190612f0d565b9150611b0d565b60008167ffffffffffffffff811115611b5357611b526131c1565b5b6040519080825280601f01601f191660200182016040528015611b855781602001600182028036833780820191505090505b5090505b60008514611c1257600182611b9e9190612f3e565b9150600a85611bad91906130d4565b6030611bb99190612eb7565b60f81b818381518110611bcf57611bce613192565b5b60200101907effffffffffffffffffffffffffffffffffffffffffffffffffffffffffffff1916908160001a905350600a85611c0b9190612f0d565b9450611b89565b8093505050505b919050565b816069600083815260200190815260200160002060006101000a81548173ffffffffffffffffffffffffffffffffffffffff021916908373ffffffffffffffffffffffffffffffffffffffff160217905550808273ffffffffffffffffffffffffffffffffffffffff16611c91836108ef565b73ffffffffffffffffffffffffffffffffffffffff167f8c5be1e5ebec7d5bd14f71427d1e84f3dd0314c0f7b2291e5b200ac8c7c3b92560405160405180910390a45050565b505050565b505050565b611ceb8383612063565b611cf86000848484611ea9565b611d37576040517f08c379a0000000000000000000000000000000000000000000000000000000008152600401611d2e90612b52565b60405180910390fd5b505050565b8173ffffffffffffffffffffffffffffffffffffffff168373ffffffffffffffffffffffffffffffffffffffff161415611dab576040517f08c379a0000000000000000000000000000000000000000000000000000000008152600401611da290612bf2565b60405180910390fd5b80606a60008573ffffffffffffffffffffffffffffffffffffffff1673ffffffffffffffffffffffffffffffffffffffff16815260200190815260200160002060008473ffffffffffffffffffffffffffffffffffffffff1673ffffffffffffffffffffffffffffffffffffffff16815260200190815260200160002060006101000a81548160ff0219169083151502179055508173ffffffffffffffffffffffffffffffffffffffff168373ffffffffffffffffffffffffffffffffffffffff167f17307eab39ab6107e8899845ad3d59bd9653f200f220920489ca2b5937696c3183604051611e9c9190612b15565b60405180910390a3505050565b6000611eca8473ffffffffffffffffffffffffffffffffffffffff16612040565b15612033578373ffffffffffffffffffffffffffffffffffffffff1663150b7a02611ef36113f0565b8786866040518563ffffffff1660e01b8152600401611f159493929190612ac9565b602060405180830381600087803b158015611f2f57600080fd5b505af1925050508015611f6057506040513d601f19601f82011682018060405250810190611f5d919061265b565b60015b611fe3573d8060008114611f90576040519150601f19603f3d011682016040523d82523d6000602084013e611f95565b606091505b50600081511415611fdb576040517f08c379a0000000000000000000000000000000000000000000000000000000008152600401611fd290612b52565b60405180910390fd5b805181602001fd5b63150b7a0260e01b7bffffffffffffffffffffffffffffffffffffffffffffffffffffffff1916817bffffffffffffffffffffffffffffffffffffffffffffffffffffffff191614915050612038565b600190505b949350505050565b6000808273ffffffffffffffffffffffffffffffffffffffff163b119050919050565b600073ffffffffffffffffffffffffffffffffffffffff168273ffffffffffffffffffffffffffffffffffffffff1614156120d3576040517f08c379a00000000000000000000000000000000000000000000000000000000081526004016120ca90612cb2565b60405180910390fd5b6120dc8161126c565b1561211c576040517f08c379a000000000000000000000000000000000000000000000000000000000815260040161211390612bb2565b60405180910390fd5b61212860008383611cd7565b6001606860008473ffffffffffffffffffffffffffffffffffffffff1673ffffffffffffffffffffffffffffffffffffffff16815260200190815260200160002060008282546121789190612eb7565b92505081905550816067600083815260200190815260200160002060006101000a81548173ffffffffffffffffffffffffffffffffffffffff021916908373ffffffffffffffffffffffffffffffffffffffff160217905550808273ffffffffffffffffffffffffffffffffffffffff16600073ffffffffffffffffffffffffffffffffffffffff167fddf252ad1be2c89b69c2b068fc378daa952ba7f163c4a11628f55a4df523b3ef60405160405180910390a461223960008383611cdc565b5050565b82805461224990613028565b90600052602060002090601f01602090048101928261226b57600085556122b2565b82601f1061228457805160ff19168380011785556122b2565b828001600101855582156122b2579182015b828111156122b1578251825591602001919060010190612296565b5b5090506122bf91906122c3565b5090565b5b808211156122dc5760008160009055506001016122c4565b5090565b60006122f36122ee84612e12565b612ded565b90508281526020810184848401111561230f5761230e6131f5565b5b61231a848285612fe6565b509392505050565b600061233561233084612e43565b612ded565b905082815260208101848484011115612351576123506131f5565b5b61235c848285612fe6565b509392505050565b600081359050612373816137a9565b92915050565b600081519050612388816137a9565b92915050565b60008135905061239d816137c0565b92915050565b6000813590506123b2816137d7565b92915050565b6000815190506123c7816137d7565b92915050565b600082601f8301126123e2576123e16131f0565b5b81356123f28482602086016122e0565b91505092915050565b600082601f8301126124105761240f6131f0565b5b8135612420848260208601612322565b91505092915050565b600081359050612438816137ee565b92915050565b600060208284031215612454576124536131ff565b5b600061246284828501612364565b91505092915050565b600060208284031215612481576124806131ff565b5b600061248f84828501612379565b91505092915050565b600080604083850312156124af576124ae6131ff565b5b60006124bd85828601612364565b92505060206124ce85828601612364565b9150509250929050565b6000806000606084860312156124f1576124f06131ff565b5b60006124ff86828701612364565b935050602061251086828701612364565b925050604061252186828701612429565b9150509250925092565b60008060008060808587031215612545576125446131ff565b5b600061255387828801612364565b945050602061256487828801612364565b935050604061257587828801612429565b925050606085013567ffffffffffffffff811115612596576125956131fa565b5b6125a2878288016123cd565b91505092959194509250565b600080604083850312156125c5576125c46131ff565b5b60006125d385828601612364565b92505060206125e48582860161238e565b9150509250929050565b60008060408385031215612605576126046131ff565b5b600061261385828601612364565b925050602061262485828601612429565b9150509250929050565b600060208284031215612644576126436131ff565b5b6000612652848285016123a3565b91505092915050565b600060208284031215612671576126706131ff565b5b600061267f848285016123b8565b91505092915050565b60006020828403121561269e5761269d6131ff565b5b600082013567ffffffffffffffff8111156126bc576126bb6131fa565b5b6126c8848285016123fb565b91505092915050565b6000602082840312156126e7576126e66131ff565b5b60006126f584828501612429565b91505092915050565b61270781612f72565b82525050565b61271681612f84565b82525050565b600061272782612e74565b6127318185612e8a565b9350612741818560208601612ff5565b61274a81613204565b840191505092915050565b600061276082612e7f565b61276a8185612e9b565b935061277a818560208601612ff5565b61278381613204565b840191505092915050565b600061279982612e7f565b6127a38185612eac565b93506127b3818560208601612ff5565b80840191505092915050565b60006127cc603283612e9b565b91506127d782613215565b604082019050919050565b60006127ef602683612e9b565b91506127fa82613264565b604082019050919050565b6000612812602583612e9b565b915061281d826132b3565b604082019050919050565b6000612835601c83612e9b565b915061284082613302565b602082019050919050565b6000612858602483612e9b565b91506128638261332b565b604082019050919050565b600061287b601983612e9b565b91506128868261337a565b602082019050919050565b600061289e602c83612e9b565b91506128a9826133a3565b604082019050919050565b60006128c1603883612e9b565b91506128cc826133f2565b604082019050919050565b60006128e4602a83612e9b565b91506128ef82613441565b604082019050919050565b6000612907602983612e9b565b915061291282613490565b604082019050919050565b600061292a602e83612e9b565b9150612935826134df565b604082019050919050565b600061294d602083612e9b565b91506129588261352e565b602082019050919050565b6000612970602c83612e9b565b915061297b82613557565b604082019050919050565b6000612993602083612e9b565b915061299e826135a6565b602082019050919050565b60006129b6602f83612e9b565b91506129c1826135cf565b604082019050919050565b60006129d9603583612e9b565b91506129e48261361e565b604082019050919050565b60006129fc602183612e9b565b9150612a078261366d565b604082019050919050565b6000612a1f603183612e9b565b9150612a2a826136bc565b604082019050919050565b6000612a42602b83612e9b565b9150612a4d8261370b565b604082019050919050565b6000612a65603083612e9b565b9150612a708261375a565b604082019050919050565b612a8481612fdc565b82525050565b6000612a96828561278e565b9150612aa2828461278e565b91508190509392505050565b6000602082019050612ac360008301846126fe565b92915050565b6000608082019050612ade60008301876126fe565b612aeb60208301866126fe565b612af86040830185612a7b565b8181036060830152612b0a818461271c565b905095945050505050565b6000602082019050612b2a600083018461270d565b92915050565b60006020820190508181036000830152612b4a8184612755565b905092915050565b60006020820190508181036000830152612b6b816127bf565b9050919050565b60006020820190508181036000830152612b8b816127e2565b9050919050565b60006020820190508181036000830152612bab81612805565b9050919050565b60006020820190508181036000830152612bcb81612828565b9050919050565b60006020820190508181036000830152612beb8161284b565b9050919050565b60006020820190508181036000830152612c0b8161286e565b9050919050565b60006020820190508181036000830152612c2b81612891565b9050919050565b60006020820190508181036000830152612c4b816128b4565b9050919050565b60006020820190508181036000830152612c6b816128d7565b9050919050565b60006020820190508181036000830152612c8b816128fa565b9050919050565b60006020820190508181036000830152612cab8161291d565b9050919050565b60006020820190508181036000830152612ccb81612940565b9050919050565b60006020820190508181036000830152612ceb81612963565b9050919050565b60006020820190508181036000830152612d0b81612986565b9050919050565b60006020820190508181036000830152612d2b816129a9565b9050919050565b60006020820190508181036000830152612d4b816129cc565b9050919050565b60006020820190508181036000830152612d6b816129ef565b9050919050565b60006020820190508181036000830152612d8b81612a12565b9050919050565b60006020820190508181036000830152612dab81612a35565b9050919050565b60006020820190508181036000830152612dcb81612a58565b9050919050565b6000602082019050612de76000830184612a7b565b92915050565b6000612df7612e08565b9050612e03828261305a565b919050565b6000604051905090565b600067ffffffffffffffff821115612e2d57612e2c6131c1565b5b612e3682613204565b9050602081019050919050565b600067ffffffffffffffff821115612e5e57612e5d6131c1565b5b612e6782613204565b9050602081019050919050565b600081519050919050565b600081519050919050565b600082825260208201905092915050565b600082825260208201905092915050565b600081905092915050565b6000612ec282612fdc565b9150612ecd83612fdc565b9250827fffffffffffffffffffffffffffffffffffffffffffffffffffffffffffffffff03821115612f0257612f01613105565b5b828201905092915050565b6000612f1882612fdc565b9150612f2383612fdc565b925082612f3357612f32613134565b5b828204905092915050565b6000612f4982612fdc565b9150612f5483612fdc565b925082821015612f6757612f66613105565b5b828203905092915050565b6000612f7d82612fbc565b9050919050565b60008115159050919050565b60007fffffffff0000000000000000000000000000000000000000000000000000000082169050919050565b600073ffffffffffffffffffffffffffffffffffffffff82169050919050565b6000819050919050565b82818337600083830152505050565b60005b83811015613013578082015181840152602081019050612ff8565b83811115613022576000848401525b50505050565b6000600282049050600182168061304057607f821691505b6020821081141561305457613053613163565b5b50919050565b61306382613204565b810181811067ffffffffffffffff82111715613082576130816131c1565b5b80604052505050565b600061309682612fdc565b91507fffffffffffffffffffffffffffffffffffffffffffffffffffffffffffffffff8214156130c9576130c8613105565b5b600182019050919050565b60006130df82612fdc565b91506130ea83612fdc565b9250826130fa576130f9613134565b5b828206905092915050565b7f4e487b7100000000000000000000000000000000000000000000000000000000600052601160045260246000fd5b7f4e487b7100000000000000000000000000000000000000000000000000000000600052601260045260246000fd5b7f4e487b7100000000000000000000000000000000000000000000000000000000600052602260045260246000fd5b7f4e487b7100000000000000000000000000000000000000000000000000000000600052603260045260246000fd5b7f4e487b7100000000000000000000000000000000000000000000000000000000600052604160045260246000fd5b600080fd5b600080fd5b600080fd5b600080fd5b6000601f19601f8301169050919050565b7f4552433732313a207472616e7366657220746f206e6f6e20455243373231526560008201527f63656976657220696d706c656d656e7465720000000000000000000000000000602082015250565b7f4f776e61626c653a206e6577206f776e657220697320746865207a65726f206160008201527f6464726573730000000000000000000000000000000000000000000000000000602082015250565b7f4552433732313a207472616e736665722066726f6d20696e636f72726563742060008201527f6f776e6572000000000000000000000000000000000000000000000000000000602082015250565b7f4552433732313a20746f6b656e20616c7265616479206d696e74656400000000600082015250565b7f4552433732313a207472616e7366657220746f20746865207a65726f2061646460008201527f7265737300000000000000000000000000000000000000000000000000000000602082015250565b7f4552433732313a20617070726f766520746f2063616c6c657200000000000000600082015250565b7f4552433732313a206f70657261746f7220717565727920666f72206e6f6e657860008201527f697374656e7420746f6b656e0000000000000000000000000000000000000000602082015250565b7f4552433732313a20617070726f76652063616c6c6572206973206e6f74206f7760008201527f6e6572206e6f7220617070726f76656420666f7220616c6c0000000000000000602082015250565b7f4552433732313a2062616c616e636520717565727920666f7220746865207a6560008201527f726f206164647265737300000000000000000000000000000000000000000000602082015250565b7f4552433732313a206f776e657220717565727920666f72206e6f6e657869737460008201527f656e7420746f6b656e0000000000000000000000000000000000000000000000602082015250565b7f496e697469616c697a61626c653a20636f6e747261637420697320616c72656160008201527f647920696e697469616c697a6564000000000000000000000000000000000000602082015250565b7f4552433732313a206d696e7420746f20746865207a65726f2061646472657373600082015250565b7f4552433732313a20617070726f76656420717565727920666f72206e6f6e657860008201527f697374656e7420746f6b656e0000000000000000000000000000000000000000602082015250565b7f4f776e61626c653a2063616c6c6572206973206e6f7420746865206f776e6572600082015250565b7f4552433732314d657461646174613a2055524920717565727920666f72206e6f60008201527f6e6578697374656e7420746f6b656e0000000000000000000000000000000000602082015250565b7f52756774656e4e46543a2052756774656e4e46542063616e206f6e6c7920626560008201527f206c697374656420746f204f70656e536561203a280000000000000000000000602082015250565b7f4552433732313a20617070726f76616c20746f2063757272656e74206f776e6560008201527f7200000000000000000000000000000000000000000000000000000000000000602082015250565b7f4552433732313a207472616e736665722063616c6c6572206973206e6f74206f60008201527f776e6572206e6f7220617070726f766564000000000000000000000000000000602082015250565b7f496e697469616c697a61626c653a20636f6e7472616374206973206e6f74206960008201527f6e697469616c697a696e67000000000000000000000000000000000000000000602082015250565b7f4552433732314275726e61626c653a2063616c6c6572206973206e6f74206f7760008201527f6e6572206e6f7220617070726f76656400000000000000000000000000000000602082015250565b6137b281612f72565b81146137bd57600080fd5b50565b6137c981612f84565b81146137d457600080fd5b50565b6137e081612f90565b81146137eb57600080fd5b50565b6137f781612fdc565b811461380257600080fd5b5056fea2646970667358221220d51f3e6b5ff9d787394ce550670f54e7ff97ae56a938c53dff0caec9dcc7b7c864736f6c63430008060033",
  "devdoc": {
    "kind": "dev",
    "methods": {
      "approve(address,uint256)": {
        "details": "See {IERC721-approve}."
      },
      "balanceOf(address)": {
        "details": "See {IERC721-balanceOf}."
      },
      "getApproved(uint256)": {
        "details": "See {IERC721-getApproved}."
      },
      "isApprovedForAll(address,address)": {
        "details": "See {IERC721-isApprovedForAll}."
      },
      "name()": {
        "details": "See {IERC721Metadata-name}."
      },
      "owner()": {
        "details": "Returns the address of the current owner."
      },
      "ownerOf(uint256)": {
        "details": "See {IERC721-ownerOf}."
      },
      "renounceOwnership()": {
        "details": "Leaves the contract without owner. It will not be possible to call `onlyOwner` functions anymore. Can only be called by the current owner. NOTE: Renouncing ownership will leave the contract without an owner, thereby removing any functionality that is only available to the owner."
      },
      "safeTransferFrom(address,address,uint256)": {
        "details": "See {IERC721-safeTransferFrom}."
      },
      "safeTransferFrom(address,address,uint256,bytes)": {
        "details": "See {IERC721-safeTransferFrom}."
      },
      "setApprovalForAll(address,bool)": {
        "details": "See {IERC721-setApprovalForAll}."
      },
      "supportsInterface(bytes4)": {
        "details": "See {IERC165-supportsInterface}."
      },
      "symbol()": {
        "details": "See {IERC721Metadata-symbol}."
      },
      "tokenURI(uint256)": {
        "details": "See {IERC721Metadata-tokenURI}."
      },
      "transferFrom(address,address,uint256)": {
        "details": "See {IERC721-transferFrom}."
      },
      "transferOwnership(address)": {
        "details": "Transfers ownership of the contract to a new account (`newOwner`). Can only be called by the current owner."
      }
    },
    "version": 1
  },
  "userdoc": {
    "kind": "user",
    "methods": {},
    "version": 1
  },
  "storageLayout": {
    "storage": [
      {
        "astId": 130,
        "contract": "contracts/RugtenNFT.sol:RugtenNFT",
        "label": "_initialized",
        "offset": 0,
        "slot": "0",
        "type": "t_bool"
      },
      {
        "astId": 133,
        "contract": "contracts/RugtenNFT.sol:RugtenNFT",
        "label": "_initializing",
        "offset": 1,
        "slot": "0",
        "type": "t_bool"
      },
      {
        "astId": 1533,
        "contract": "contracts/RugtenNFT.sol:RugtenNFT",
        "label": "__gap",
        "offset": 0,
        "slot": "1",
        "type": "t_array(t_uint256)50_storage"
      },
      {
        "astId": 1780,
        "contract": "contracts/RugtenNFT.sol:RugtenNFT",
        "label": "__gap",
        "offset": 0,
        "slot": "51",
        "type": "t_array(t_uint256)50_storage"
      },
      {
        "astId": 226,
        "contract": "contracts/RugtenNFT.sol:RugtenNFT",
        "label": "_name",
        "offset": 0,
        "slot": "101",
        "type": "t_string_storage"
      },
      {
        "astId": 228,
        "contract": "contracts/RugtenNFT.sol:RugtenNFT",
        "label": "_symbol",
        "offset": 0,
        "slot": "102",
        "type": "t_string_storage"
      },
      {
        "astId": 232,
        "contract": "contracts/RugtenNFT.sol:RugtenNFT",
        "label": "_owners",
        "offset": 0,
        "slot": "103",
        "type": "t_mapping(t_uint256,t_address)"
      },
      {
        "astId": 236,
        "contract": "contracts/RugtenNFT.sol:RugtenNFT",
        "label": "_balances",
        "offset": 0,
        "slot": "104",
        "type": "t_mapping(t_address,t_uint256)"
      },
      {
        "astId": 240,
        "contract": "contracts/RugtenNFT.sol:RugtenNFT",
        "label": "_tokenApprovals",
        "offset": 0,
        "slot": "105",
        "type": "t_mapping(t_uint256,t_address)"
      },
      {
        "astId": 246,
        "contract": "contracts/RugtenNFT.sol:RugtenNFT",
        "label": "_operatorApprovals",
        "offset": 0,
        "slot": "106",
        "type": "t_mapping(t_address,t_mapping(t_address,t_bool))"
      },
      {
        "astId": 1087,
        "contract": "contracts/RugtenNFT.sol:RugtenNFT",
        "label": "__gap",
        "offset": 0,
        "slot": "107",
        "type": "t_array(t_uint256)44_storage"
      },
      {
        "astId": 10,
        "contract": "contracts/RugtenNFT.sol:RugtenNFT",
        "label": "_owner",
        "offset": 0,
        "slot": "151",
        "type": "t_address"
      },
      {
        "astId": 122,
        "contract": "contracts/RugtenNFT.sol:RugtenNFT",
        "label": "__gap",
        "offset": 0,
        "slot": "152",
        "type": "t_array(t_uint256)49_storage"
      },
      {
        "astId": 1816,
        "contract": "contracts/RugtenNFT.sol:RugtenNFT",
        "label": "customBaseURI",
        "offset": 0,
        "slot": "201",
        "type": "t_string_storage"
      },
      {
        "astId": 1818,
        "contract": "contracts/RugtenNFT.sol:RugtenNFT",
        "label": "acceptApprovalAddress",
        "offset": 0,
        "slot": "202",
        "type": "t_address"
      }
    ],
    "types": {
      "t_address": {
        "encoding": "inplace",
        "label": "address",
        "numberOfBytes": "20"
      },
      "t_array(t_uint256)44_storage": {
        "base": "t_uint256",
        "encoding": "inplace",
        "label": "uint256[44]",
        "numberOfBytes": "1408"
      },
      "t_array(t_uint256)49_storage": {
        "base": "t_uint256",
        "encoding": "inplace",
        "label": "uint256[49]",
        "numberOfBytes": "1568"
      },
      "t_array(t_uint256)50_storage": {
        "base": "t_uint256",
        "encoding": "inplace",
        "label": "uint256[50]",
        "numberOfBytes": "1600"
      },
      "t_bool": {
        "encoding": "inplace",
        "label": "bool",
        "numberOfBytes": "1"
      },
      "t_mapping(t_address,t_bool)": {
        "encoding": "mapping",
        "key": "t_address",
        "label": "mapping(address => bool)",
        "numberOfBytes": "32",
        "value": "t_bool"
      },
      "t_mapping(t_address,t_mapping(t_address,t_bool))": {
        "encoding": "mapping",
        "key": "t_address",
        "label": "mapping(address => mapping(address => bool))",
        "numberOfBytes": "32",
        "value": "t_mapping(t_address,t_bool)"
      },
      "t_mapping(t_address,t_uint256)": {
        "encoding": "mapping",
        "key": "t_address",
        "label": "mapping(address => uint256)",
        "numberOfBytes": "32",
        "value": "t_uint256"
      },
      "t_mapping(t_uint256,t_address)": {
        "encoding": "mapping",
        "key": "t_uint256",
        "label": "mapping(uint256 => address)",
        "numberOfBytes": "32",
        "value": "t_address"
      },
      "t_string_storage": {
        "encoding": "bytes",
        "label": "string",
        "numberOfBytes": "32"
      },
      "t_uint256": {
        "encoding": "inplace",
        "label": "uint256",
        "numberOfBytes": "32"
      }
    }
  }
}